{"abi":[{"type":"constructor","inputs":[{"name":"_feePercent","type":"uint256","internalType":"uint256"}],"stateMutability":"nonpayable"},{"type":"function","name":"getItem","inputs":[{"name":"itemId","type":"uint256","internalType":"uint256"}],"outputs":[{"name":"","type":"tuple","internalType":"struct Marketplace.Item","components":[{"name":"itemId","type":"uint256","internalType":"uint256"},{"name":"nft","type":"address","internalType":"contract IERC721"},{"name":"tokenId","type":"uint256","internalType":"uint256"},{"name":"price","type":"uint256","internalType":"uint256"},{"name":"seller","type":"address","internalType":"address payable"},{"name":"sold","type":"bool","internalType":"bool"}]}],"stateMutability":"view"},{"type":"function","name":"getTotalPrice","inputs":[{"name":"_itemId","type":"uint256","internalType":"uint256"}],"outputs":[{"name":"","type":"uint256","internalType":"uint256"}],"stateMutability":"view"},{"type":"function","name":"itemCount","inputs":[],"outputs":[{"name":"","type":"uint256","internalType":"uint256"}],"stateMutability":"view"},{"type":"function","name":"items","inputs":[{"name":"","type":"uint256","internalType":"uint256"}],"outputs":[{"name":"itemId","type":"uint256","internalType":"uint256"},{"name":"nft","type":"address","internalType":"contract IERC721"},{"name":"tokenId","type":"uint256","internalType":"uint256"},{"name":"price","type":"uint256","internalType":"uint256"},{"name":"seller","type":"address","internalType":"address payable"},{"name":"sold","type":"bool","internalType":"bool"}],"stateMutability":"view"},{"type":"function","name":"makeItem","inputs":[{"name":"_nft","type":"address","internalType":"contract IERC721"},{"name":"tokenId","type":"uint256","internalType":"uint256"},{"name":"price","type":"uint256","internalType":"uint256"}],"outputs":[],"stateMutability":"nonpayable"},{"type":"function","name":"purchaseItem","inputs":[{"name":"_itemId","type":"uint256","internalType":"uint256"}],"outputs":[],"stateMutability":"payable"},{"type":"event","name":"Bought","inputs":[{"name":"itemId","type":"uint256","indexed":false,"internalType":"uint256"},{"name":"nft","type":"address","indexed":true,"internalType":"address"},{"name":"tokenId","type":"uint256","indexed":false,"internalType":"uint256"},{"name":"price","type":"uint256","indexed":false,"internalType":"uint256"},{"name":"seller","type":"address","indexed":true,"internalType":"address"},{"name":"buyer","type":"address","indexed":true,"internalType":"address"}],"anonymous":false},{"type":"event","name":"Offered","inputs":[{"name":"itemId","type":"uint256","indexed":false,"internalType":"uint256"},{"name":"nft","type":"address","indexed":true,"internalType":"address"},{"name":"tokenId","type":"uint256","indexed":false,"internalType":"uint256"},{"name":"price","type":"uint256","indexed":false,"internalType":"uint256"},{"name":"seller","type":"address","indexed":true,"internalType":"address"}],"anonymous":false},{"type":"error","name":"Marketplace__ItemIsMissing","inputs":[]},{"type":"error","name":"Marketplace__ItemSold","inputs":[]},{"type":"error","name":"Marketplace__PriceMustAboveZero","inputs":[{"name":"price","type":"uint256","internalType":"uint256"}]},{"type":"error","name":"Marketplace__SentIsFailed","inputs":[]},{"type":"error","name":"Marketplace__ValueMustAboveTotalPrice","inputs":[{"name":"price","type":"uint256","internalType":"uint256"}]},{"type":"error","name":"ReentrancyGuardReentrantCall","inputs":[]}],"bytecode":{"object":"0x60c0604052348015600f57600080fd5b50604051610969380380610969833981016040819052602c91603c565b60016000553360805260a0526054565b600060208284031215604d57600080fd5b5051919050565b60805160a0516108f06100796000396000610299015260006103ef01526108f06000f3fe6080604052600436106100555760003560e01c80633129e7731461005a5780636bfb0d0114610178578063bfb231d21461019c578063ca7dd3751461023b578063d38ea5bf1461025b578063fa00afc714610270575b600080fd5b34801561006657600080fd5b506101156100753660046107d2565b6040805160c081018252600080825260208201819052918101829052606081018290526080810182905260a081019190915250600090815260026020818152604092839020835160c0810185528154815260018201546001600160a01b03908116938201939093529281015493830193909352600383015460608301526004909201549182166080820152600160a01b90910460ff16151560a082015290565b60405161016f9190815181526020808301516001600160a01b039081169183019190915260408084015190830152606080840151908301526080808401519091169082015260a09182015115159181019190915260c00190565b60405180910390f35b34801561018457600080fd5b5061018e60015481565b60405190815260200161016f565b3480156101a857600080fd5b506101ff6101b73660046107d2565b60026020819052600091825260409091208054600182015492820154600383015460049093015491936001600160a01b0390811693919290811690600160a01b900460ff1686565b604080519687526001600160a01b03958616602088015286019390935260608501919091529091166080830152151560a082015260c00161016f565b34801561024757600080fd5b5061018e6102563660046107d2565b610290565b61026e6102693660046107d2565b6102ea565b005b34801561027c57600080fd5b5061026e61028b3660046107eb565b610594565b600060646102be7f000000000000000000000000000000000000000000000000000000000000000082610842565b6000848152600260205260409020600301546102da9190610855565b6102e4919061086c565b92915050565b6102f2610736565b60006102fd82610290565b60008381526002602052604090209091503482111561033757604051630336187560e51b8152600481018390526024015b60405180910390fd5b60018101546001600160a01b03166103625760405163adfe739960e01b815260040160405180910390fd5b6004810154600160a01b900460ff161561038f5760405163451a337760e11b815260040160405180910390fd5b600481015460038201546040516000926001600160a01b031691908381818185875af1925050503d80600081146103e2576040519150601f19603f3d011682016040523d82523d6000602084013e6103e7565b606091505b5050905060007f00000000000000000000000000000000000000000000000000000000000000006001600160a01b0316836003015485610427919061088e565b604051600081818185875af1925050503d8060008114610463576040519150601f19603f3d011682016040523d82523d6000602084013e610468565b606091505b50509050811580610477575080155b1561049f576104868282610760565b60405163151fce4560e11b815260040160405180910390fd5b600183015460028401546040516323b872dd60e01b815230600482015233602482015260448101919091526001600160a01b03909116906323b872dd90606401600060405180830381600087803b1580156104f957600080fd5b505af115801561050d573d6000803e3d6000fd5b50505050600483018054600160a01b60ff60a01b1982161790915560018401546002850154604080518981526020810192909252810187905233926001600160a01b039081169216907f8b4c9c8a607d67b321582dd8461041b1dc2ceeca70c8b7f37f8e02095cf2e76d9060600160405180910390a4505050506105916001600055565b50565b61059c610736565b600081116105c0576040516304382c1b60e21b81526004810182905260240161032e565b600180549060006105d0836108a1565b90915550506040516323b872dd60e01b8152336004820152306024820152604481018390526001600160a01b038416906323b872dd90606401600060405180830381600087803b15801561062357600080fd5b505af1158015610637573d6000803e3d6000fd5b50506040805160c081018252600180548083526001600160a01b0389811660208086018281528688018c815260608089018d81523360808b01818152600060a08d018181529a81526002808952908e90209c518d5595518c8c018054918b166001600160a01b03199092169190911790559351948b01949094555160038a015590516004909801805496511515600160a01b026001600160a81b031990971698909516979097179490941790925592548551908152908101899052938401879052945092507f655a0cf9c8db81512be9a76dc1c5ae5380b8816ce6ad659cd61b715e2999d59a910160405180910390a36107316001600055565b505050565b60026000540361075957604051633ee5aeb560e01b815260040160405180910390fd5b6002600055565b604051821515602482015281151560448201526107a99060640160408051601f198184030181529190526020810180516001600160e01b0316632a110e8360e01b1790526107ad565b5050565b6105918160006a636f6e736f6c652e6c6f679050600080835160208501845afa505050565b6000602082840312156107e457600080fd5b5035919050565b60008060006060848603121561080057600080fd5b83356001600160a01b038116811461081757600080fd5b95602085013595506040909401359392505050565b634e487b7160e01b600052601160045260246000fd5b808201808211156102e4576102e461082c565b80820281158282048414176102e4576102e461082c565b60008261088957634e487b7160e01b600052601260045260246000fd5b500490565b818103818111156102e4576102e461082c565b6000600182016108b3576108b361082c565b506001019056fea2646970667358221220d9b1b6274b7f41cdde221011fa590fe1873347d7c7a2bcc44b134a1372a7f99964736f6c634300081a0033","linkReferences":{}},"methodIdentifiers":{"getItem(uint256)":"3129e773","getTotalPrice(uint256)":"ca7dd375","itemCount()":"6bfb0d01","items(uint256)":"bfb231d2","makeItem(address,uint256,uint256)":"fa00afc7","purchaseItem(uint256)":"d38ea5bf"},"id":33}